:0E0000001AC0FECFFDCFFCCFFBCFFACFF9CF59
:10000E00F8CFF7CFF6CFF5CFF4CFF3CFF2CFF1CFC6
:10001E00F0CFEFCFEECFEDCFECCFEBCF0000000067
:10002E00030005002A000000F894EE27ECBBF1E077
:10003E00FBBFEBBFE5BF8DE0A2E0BB27ED938A953A
:10004E00E9F780E092E0A0E6ED930197E9F7EEE2A2
:10005E00F0E085919591009761F0A591B59105908D
:10006E001590BF01F00105900D920197E1F7FB018C
:10007E00F0CFEFE5EDBFE2E0EEBFC0EED0E000C0A6
:10008E00EFEFEABBE0E0EBBBE7BBE3E0E8BBE0E0B1
:10009E00E4BBE5BBEFEFE1BBE0E0E2BBE3BFE2BFF9
:1000AE00ECBFEFBDEEBDEDBDECBDE7BDE6BDEBBDFE
:1000BE00EABDE9BDE8BDE2BDE5BDE4BDE3BDE9BF16
:1000CE00E5BFE4BFEAB9E0E8E8B9E0E0E0BFE6B9D1
:1000DE00EDB9E6BFB1993EC083E08A95F1F755249C
:1000EE00EFEF5E1670F4B09907C0F30131963F0141
:1000FE0086E08A95F1F703C087E08A95F1F753946D
:10010E00EFCF2FD010F0D89A18C0E7E3F0E06E16BC
:10011E007F0610F026D008F002C0D99A0EC0EAE091
:10012E00F0E06E167F0628F0E2E3F0E06E167F0632
:10013E0008F002C0DA9A01C0DB9A62BAA8EEB3E008
:10014E0015D0D898D998DA98DB98E0E0E2BB66240F
:10015E00772405C066247724E0E0E5BBEBBBBACF7D
:10016E00FFCFE4E6F0E06E167F060895109639F0A4
:10017E00A8958AEF90E00197F1F71197C9F70895C6
:00000001FF
