:0A0000001AC0FECFFDCFFCCFFBCFEE
:10000A00FACFF9CFF8CFF7CFF6CFF5CFF4CFF3CFBA
:10001A00F2CFF1CFF0CFEFCFEECFEDCFECCFEBCFEA
:10002A0000000000030005002A000000F894EE27F3
:10003A00ECBBF1E0FBBFEBBFE5BF8DE0A2E0BB2765
:10004A00ED938A95E9F780E092E0A0E6ED930197B7
:10005A00E9F7EEE2F0E085919591009761F0A591BC
:10006A00B59105901590BF01F00105900D92019789
:10007A00E1F7FB01F0CFEFE5EDBFE2E0EEBFC0EE46
:10008A00D0E000C0EFEFEABBE0E0EBBBE7BBE3E0A8
:10009A00E8BBE0E0E4BBE5BBEFEFE1BBE0E0E2BBDD
:1000AA00E3BFE2BFECBFEFBDEEBDEDBDECBDE7BD0A
:1000BA00E6BDEBBDEABDE9BDE8BDE2BDE5BDE4BD17
:1000CA00E3BDE9BFE5BFE4BFEAB9E0E8E8B9E0E0CB
:1000DA00E0BFE6B9EDB9E6BFB1992FC05524EFEFFD
:1000EA005E1650F4B09903C0F30131963F018AE0DD
:1000FA008A95F1F75394F3CF27D010F0D89A10C00D
:10010A0028D010F021D008F002C0D99A09C0E4E042
:10011A00F0E06E167F0610F01CD008F001C0DA9AE3
:10012A0062BAA8EEB3E01AD0D898D998DA98DB98D0
:10013A00E0E0E2BB6624772405C066247724E0E089
:10014A00E5BBEBBBC9CFFFCFE6E4F0E06E167F0656
:10015A000895E4E1F0E06E167F060895109639F0EE
:10016A00A8958AEF90E00197F1F71197C9F70895DA
:00000001FF
