:0200000014C02A
:10000200FECFFDCFFCCFFBCFFACFF9CFF8CFF7CFA2
:10001200F6CFF5CFF4CFF3CFF2CFF1CFF0CFEFCFD2
:10002200EECFEDCFECCFEBCFF894EE27ECBBF1E0C7
:10003200FBBFEBBFE5BF8DE0A2E0BB27ED938A9546
:10004200E9F780E092E0A0E6ED930197E9F7EFE5AA
:10005200EDBFE2E0EEBFC0EED0E000C0E3E0EABBFD
:10006200EBBBE0E0E7BBEFE0E8BBE0E0E4BBE5BB15
:10007200E1BBE2BBE3BFE2BFECBFEFBDEEBDEDBD56
:10008200ECBDE7BDE6BDEBBDEABDE9BDE8BDE2BD45
:10009200E5BDE4BDE3BDE9BFE5BFE4BFEAB9E0E821
:1000A200E8B9E0E0E0BFE6B9EDB9E6BFE6B3EF706C
:1000B200EE3061F4D998E6B3EF70EE3031F4D898AF
:1000C200D89A8AE08A95F1F7F6CFD99AE6B3EF701B
:1000D200ED3061F4D998E6B3EF70ED3031F4D89891
:1000E200D89A8FE08A95F1F7F6CFD99ADFCFFFCF72
:00000001FF
